{
  "contractName": "Ballot",
  "abi": [
    {
      "inputs": [],
      "payable": false,
      "stateMutability": "nonpayable",
      "type": "constructor"
    },
    {
      "anonymous": false,
      "inputs": [
        {
          "indexed": false,
          "internalType": "uint256",
          "name": "timestamp",
          "type": "uint256"
        },
        {
          "indexed": true,
          "internalType": "address",
          "name": "_from",
          "type": "address"
        },
        {
          "indexed": true,
          "internalType": "bytes10",
          "name": "acronym",
          "type": "bytes10"
        },
        {
          "indexed": false,
          "internalType": "bytes32",
          "name": "_name",
          "type": "bytes32"
        }
      ],
      "name": "VoteEvent",
      "type": "event"
    },
    {
      "constant": true,
      "inputs": [
        {
          "internalType": "bytes10",
          "name": "",
          "type": "bytes10"
        }
      ],
      "name": "candidates",
      "outputs": [
        {
          "internalType": "uint256",
          "name": "id",
          "type": "uint256"
        },
        {
          "internalType": "bytes32",
          "name": "name",
          "type": "bytes32"
        },
        {
          "internalType": "uint256",
          "name": "voteCount",
          "type": "uint256"
        },
        {
          "internalType": "bytes10",
          "name": "acronym",
          "type": "bytes10"
        }
      ],
      "payable": false,
      "stateMutability": "view",
      "type": "function"
    },
    {
      "constant": true,
      "inputs": [],
      "name": "candidatesCount",
      "outputs": [
        {
          "internalType": "uint256",
          "name": "",
          "type": "uint256"
        }
      ],
      "payable": false,
      "stateMutability": "view",
      "type": "function"
    },
    {
      "constant": true,
      "inputs": [],
      "name": "chairperson",
      "outputs": [
        {
          "internalType": "address",
          "name": "",
          "type": "address"
        }
      ],
      "payable": false,
      "stateMutability": "view",
      "type": "function"
    },
    {
      "constant": true,
      "inputs": [],
      "name": "electionEnded",
      "outputs": [
        {
          "internalType": "bool",
          "name": "",
          "type": "bool"
        }
      ],
      "payable": false,
      "stateMutability": "view",
      "type": "function"
    },
    {
      "constant": true,
      "inputs": [],
      "name": "electionStarted",
      "outputs": [
        {
          "internalType": "bool",
          "name": "",
          "type": "bool"
        }
      ],
      "payable": false,
      "stateMutability": "view",
      "type": "function"
    },
    {
      "constant": true,
      "inputs": [],
      "name": "numVoted",
      "outputs": [
        {
          "internalType": "uint256",
          "name": "",
          "type": "uint256"
        }
      ],
      "payable": false,
      "stateMutability": "view",
      "type": "function"
    },
    {
      "constant": true,
      "inputs": [],
      "name": "numVoters",
      "outputs": [
        {
          "internalType": "uint256",
          "name": "",
          "type": "uint256"
        }
      ],
      "payable": false,
      "stateMutability": "view",
      "type": "function"
    },
    {
      "constant": true,
      "inputs": [],
      "name": "tester",
      "outputs": [
        {
          "internalType": "bytes32",
          "name": "",
          "type": "bytes32"
        }
      ],
      "payable": false,
      "stateMutability": "view",
      "type": "function"
    },
    {
      "constant": true,
      "inputs": [
        {
          "internalType": "address",
          "name": "",
          "type": "address"
        }
      ],
      "name": "voters",
      "outputs": [
        {
          "internalType": "uint256",
          "name": "weight",
          "type": "uint256"
        },
        {
          "internalType": "bool",
          "name": "voted",
          "type": "bool"
        },
        {
          "internalType": "address",
          "name": "delegate",
          "type": "address"
        },
        {
          "internalType": "bytes10",
          "name": "vote",
          "type": "bytes10"
        }
      ],
      "payable": false,
      "stateMutability": "view",
      "type": "function"
    },
    {
      "constant": false,
      "inputs": [
        {
          "internalType": "bytes32",
          "name": "_name",
          "type": "bytes32"
        },
        {
          "internalType": "bytes10",
          "name": "acronym",
          "type": "bytes10"
        }
      ],
      "name": "addCandidate",
      "outputs": [],
      "payable": false,
      "stateMutability": "nonpayable",
      "type": "function"
    },
    {
      "constant": false,
      "inputs": [
        {
          "internalType": "bytes32[]",
          "name": "_names",
          "type": "bytes32[]"
        },
        {
          "internalType": "bytes10[]",
          "name": "acronymsReceived",
          "type": "bytes10[]"
        }
      ],
      "name": "addCandidates",
      "outputs": [],
      "payable": false,
      "stateMutability": "nonpayable",
      "type": "function"
    },
    {
      "constant": false,
      "inputs": [
        {
          "internalType": "address",
          "name": "voter",
          "type": "address"
        }
      ],
      "name": "giveRightToVote",
      "outputs": [],
      "payable": false,
      "stateMutability": "nonpayable",
      "type": "function"
    },
    {
      "constant": false,
      "inputs": [
        {
          "internalType": "address",
          "name": "to",
          "type": "address"
        }
      ],
      "name": "delegate",
      "outputs": [],
      "payable": false,
      "stateMutability": "nonpayable",
      "type": "function"
    },
    {
      "constant": false,
      "inputs": [
        {
          "internalType": "bytes10",
          "name": "candidate",
          "type": "bytes10"
        },
        {
          "internalType": "address",
          "name": "voter",
          "type": "address"
        }
      ],
      "name": "vote",
      "outputs": [],
      "payable": false,
      "stateMutability": "nonpayable",
      "type": "function"
    },
    {
      "constant": true,
      "inputs": [],
      "name": "winningCandidate",
      "outputs": [
        {
          "internalType": "bytes10",
          "name": "winningCandidate_",
          "type": "bytes10"
        }
      ],
      "payable": false,
      "stateMutability": "view",
      "type": "function"
    },
    {
      "constant": false,
      "inputs": [],
      "name": "startElection",
      "outputs": [],
      "payable": false,
      "stateMutability": "nonpayable",
      "type": "function"
    },
    {
      "constant": false,
      "inputs": [],
      "name": "endElection",
      "outputs": [],
      "payable": false,
      "stateMutability": "nonpayable",
      "type": "function"
    },
    {
      "constant": true,
      "inputs": [],
      "name": "winnerName",
      "outputs": [
        {
          "internalType": "bytes32",
          "name": "winnerName_",
          "type": "bytes32"
        }
      ],
      "payable": false,
      "stateMutability": "view",
      "type": "function"
    },
    {
      "constant": true,
      "inputs": [],
      "name": "getStats",
      "outputs": [
        {
          "internalType": "bytes10[]",
          "name": "",
          "type": "bytes10[]"
        },
        {
          "internalType": "uint256[]",
          "name": "",
          "type": "uint256[]"
        }
      ],
      "payable": false,
      "stateMutability": "view",
      "type": "function"
    }
  ],
  "bytecode": "0x60806040526000600560006101000a81548160ff0219169083151502179055506000600560016101000a81548160ff021916908315150217905550600160075534801561004b57600080fd5b50336000806101000a81548173ffffffffffffffffffffffffffffffffffffffff021916908373ffffffffffffffffffffffffffffffffffffffff16021790555060018060008060009054906101000a900473ffffffffffffffffffffffffffffffffffffffff1673ffffffffffffffffffffffffffffffffffffffff1673ffffffffffffffffffffffffffffffffffffffff168152602001908152602001600020600001819055506120ef806101036000396000f3fe608060405234801561001057600080fd5b50600436106101215760003560e01c80639da66acf116100ad578063d28178d711610071578063d28178d714610558578063d3df5ea2146105a8578063d5346da1146106f4578063d55000ac14610716578063e2ba53f01461073457610121565b80639da66acf1461032b5780639e7b8d611461037c578063a3ec138d146103c0578063c59d48471461048f578063c94ca9e31461053657610121565b80634cbe32b8116100f45780634cbe32b81461029757806359f78468146102b55780635c19a95c146102bf57806362d73eb8146103035780638308abd41461030d57610121565b80630296a1f81461012657806315ddf978146101c85780632d35a8a21461022f5780632e4176cf1461024d575b600080fd5b61016b6004803603602081101561013c57600080fd5b81019080803575ffffffffffffffffffffffffffffffffffffffffffff19169060200190929190505050610752565b604051808581526020018481526020018381526020018275ffffffffffffffffffffffffffffffffffffffffffff191675ffffffffffffffffffffffffffffffffffffffffffff1916815260200194505050505060405180910390f35b61022d600480360360408110156101de57600080fd5b81019080803575ffffffffffffffffffffffffffffffffffffffffffff19169060200190929190803573ffffffffffffffffffffffffffffffffffffffff16906020019092919050505061078f565b005b610237610b17565b6040518082815260200191505060405180910390f35b610255610b1d565b604051808273ffffffffffffffffffffffffffffffffffffffff1673ffffffffffffffffffffffffffffffffffffffff16815260200191505060405180910390f35b61029f610b42565b6040518082815260200191505060405180910390f35b6102bd610b48565b005b610301600480360360208110156102d557600080fd5b81019080803573ffffffffffffffffffffffffffffffffffffffff169060200190929190505050610c3d565b005b61030b611121565b005b610315611235565b6040518082815260200191505060405180910390f35b61037a6004803603604081101561034157600080fd5b8101908080359060200190929190803575ffffffffffffffffffffffffffffffffffffffffffff1916906020019092919050505061123b565b005b6103be6004803603602081101561039257600080fd5b81019080803573ffffffffffffffffffffffffffffffffffffffff1690602001909291905050506114f4565b005b610402600480360360208110156103d657600080fd5b81019080803573ffffffffffffffffffffffffffffffffffffffff1690602001909291905050506117fa565b60405180858152602001841515151581526020018373ffffffffffffffffffffffffffffffffffffffff1673ffffffffffffffffffffffffffffffffffffffff1681526020018275ffffffffffffffffffffffffffffffffffffffffffff191675ffffffffffffffffffffffffffffffffffffffffffff1916815260200194505050505060405180910390f35b610497611864565b604051808060200180602001838103835285818151815260200191508051906020019060200280838360005b838110156104de5780820151818401526020810190506104c3565b50505050905001838103825284818151815260200191508051906020019060200280838360005b83811015610520578082015181840152602081019050610505565b5050505090500194505050505060405180910390f35b61053e6119eb565b604051808215151515815260200191505060405180910390f35b6105606119fe565b604051808275ffffffffffffffffffffffffffffffffffffffffffff191675ffffffffffffffffffffffffffffffffffffffffffff1916815260200191505060405180910390f35b6106f2600480360360408110156105be57600080fd5b81019080803590602001906401000000008111156105db57600080fd5b8201836020820111156105ed57600080fd5b8035906020019184602083028401116401000000008311171561060f57600080fd5b919080806020026020016040519081016040528093929190818152602001838360200280828437600081840152601f19601f8201169050808301925050505050505091929192908035906020019064010000000081111561066f57600080fd5b82018360208201111561068157600080fd5b803590602001918460208302840111640100000000831117156106a357600080fd5b919080806020026020016040519081016040528093929190818152602001838360200280828437600081840152601f19601f820116905080830192505050505050509192919290505050611b56565b005b6106fc611f27565b604051808215151515815260200191505060405180910390f35b61071e611f3a565b6040518082815260200191505060405180910390f35b61073c611f40565b6040518082815260200191505060405180910390f35b60026020528060005260406000206000915090508060000154908060010154908060020154908060030160009054906101000a900460b01b905084565b60001515600560019054906101000a900460ff161515146107fb576040517f08c379a000000000000000000000000000000000000000000000000000000000815260040180806020018281038252604581526020018061204e6045913960600191505060405180910390fd5b60011515600560009054906101000a900460ff16151514610867576040517f08c379a000000000000000000000000000000000000000000000000000000000815260040180806020018281038252604a815260200180611fe1604a913960600191505060405180910390fd5b6000600160008373ffffffffffffffffffffffffffffffffffffffff1673ffffffffffffffffffffffffffffffffffffffff16815260200190815260200160002090506000816000015411610924576040517f08c379a00000000000000000000000000000000000000000000000000000000081526004018080602001828103825260148152602001807f486173206e6f20726967687420746f20766f746500000000000000000000000081525060200191505060405180910390fd5b8060010160009054906101000a900460ff16156109a9576040517f08c379a000000000000000000000000000000000000000000000000000000000815260040180806020018281038252600e8152602001807f416c726561647920766f7465642e00000000000000000000000000000000000081525060200191505060405180910390fd5b60018160010160006101000a81548160ff021916908315150217905550828160010160156101000a81548169ffffffffffffffffffff021916908360b01c02179055508060000154600260008575ffffffffffffffffffffffffffffffffffffffffffff191675ffffffffffffffffffffffffffffffffffffffffffff191681526020019081526020016000206002016000828254019250508190555080600001546008600082825401925050819055508275ffffffffffffffffffffffffffffffffffffffffffff19168273ffffffffffffffffffffffffffffffffffffffff167fe0a55f41b156e8557d1d7110260242787987baf09857b6e695f3d36b9827e74b42600260008875ffffffffffffffffffffffffffffffffffffffffffff191675ffffffffffffffffffffffffffffffffffffffffffff1916815260200190815260200160002060010154604051808381526020018281526020019250505060405180910390a3505050565b60065481565b6000809054906101000a900473ffffffffffffffffffffffffffffffffffffffff1681565b60075481565b60011515600560009054906101000a900460ff16151514610bb4576040517f08c379a000000000000000000000000000000000000000000000000000000000815260040180806020018281038252604a815260200180611fe1604a913960600191505060405180910390fd5b60001515600560019054906101000a900460ff16151514610c20576040517f08c379a000000000000000000000000000000000000000000000000000000000815260040180806020018281038252604581526020018061204e6045913960600191505060405180910390fd5b6001600560016101000a81548160ff021916908315150217905550565b60001515600560009054906101000a900460ff161515148015610c73575060001515600560019054906101000a900460ff161515145b610cc8576040517f08c379a0000000000000000000000000000000000000000000000000000000008152600401808060200182810382526049815260200180611f986049913960600191505060405180910390fd5b60008190506000600160003373ffffffffffffffffffffffffffffffffffffffff1673ffffffffffffffffffffffffffffffffffffffff16815260200190815260200160002090508060010160009054906101000a900460ff1615610d95576040517f08c379a00000000000000000000000000000000000000000000000000000000081526004018080602001828103825260128152602001807f796f7520616c726561647920766f7465642e000000000000000000000000000081525060200191505060405180910390fd5b3373ffffffffffffffffffffffffffffffffffffffff168273ffffffffffffffffffffffffffffffffffffffff161415610e37576040517f08c379a000000000000000000000000000000000000000000000000000000000815260040180806020018281038252601b8152602001807f796f7520646f6e277420766f746520666f7220796f757273656c66000000000081525060200191505060405180910390fd5b5b600073ffffffffffffffffffffffffffffffffffffffff16600160008473ffffffffffffffffffffffffffffffffffffffff1673ffffffffffffffffffffffffffffffffffffffff16815260200190815260200160002060010160019054906101000a900473ffffffffffffffffffffffffffffffffffffffff1673ffffffffffffffffffffffffffffffffffffffff1614610fda57600160008373ffffffffffffffffffffffffffffffffffffffff1673ffffffffffffffffffffffffffffffffffffffff16815260200190815260200160002060010160019054906101000a900473ffffffffffffffffffffffffffffffffffffffff1691503373ffffffffffffffffffffffffffffffffffffffff168273ffffffffffffffffffffffffffffffffffffffff161415610fd5576040517f08c379a00000000000000000000000000000000000000000000000000000000081526004018080602001828103825260188152602001807f666f756e64206c6f6f7020696e2064656c65676174696f6e000000000000000081525060200191505060405180910390fd5b610e38565b60018160010160006101000a81548160ff021916908315150217905550818160010160016101000a81548173ffffffffffffffffffffffffffffffffffffffff021916908373ffffffffffffffffffffffffffffffffffffffff1602179055506000600160008473ffffffffffffffffffffffffffffffffffffffff1673ffffffffffffffffffffffffffffffffffffffff16815260200190815260200160002090508060010160009054906101000a900460ff1615611104578160000154600260008360010160159054906101000a900460b01b75ffffffffffffffffffffffffffffffffffffffffffff191675ffffffffffffffffffffffffffffffffffffffffffff191681526020019081526020016000206002016000828254019250508190555061111b565b816000015481600001600082825401925050819055505b50505050565b60001515600560009054906101000a900460ff161515148015611157575060001515600560019054906101000a900460ff161515145b6111ac576040517f08c379a0000000000000000000000000000000000000000000000000000000008152600401808060200182810382526049815260200180611f986049913960600191505060405180910390fd5b60001515600560019054906101000a900460ff16151514611218576040517f08c379a000000000000000000000000000000000000000000000000000000000815260040180806020018281038252604581526020018061204e6045913960600191505060405180910390fd5b6001600560006101000a81548160ff021916908315150217905550565b60045481565b60001515600560009054906101000a900460ff161515148015611271575060001515600560019054906101000a900460ff161515145b6112c6576040517f08c379a0000000000000000000000000000000000000000000000000000000008152600401808060200182810382526049815260200180611f986049913960600191505060405180910390fd5b6000809054906101000a900473ffffffffffffffffffffffffffffffffffffffff1673ffffffffffffffffffffffffffffffffffffffff163373ffffffffffffffffffffffffffffffffffffffff161461136b576040517f08c379a000000000000000000000000000000000000000000000000000000000815260040180806020018281038252602381526020018061202b6023913960400191505060405180910390fd5b6000600260008375ffffffffffffffffffffffffffffffffffffffffffff191675ffffffffffffffffffffffffffffffffffffffffffff1916815260200190815260200160002060000154141561142357600381908060018154018082558091505090600182039060005260206000209060039182820401919006600a02909192909190916101000a81548169ffffffffffffffffffff021916908360b01c0217905550506006600081548092919060010191905055505b60405180608001604052806006548152602001838152602001600081526020018275ffffffffffffffffffffffffffffffffffffffffffff1916815250600260008375ffffffffffffffffffffffffffffffffffffffffffff191675ffffffffffffffffffffffffffffffffffffffffffff1916815260200190815260200160002060008201518160000155602082015181600101556040820151816002015560608201518160030160006101000a81548169ffffffffffffffffffff021916908360b01c02179055509050505050565b60001515600560009054906101000a900460ff16151514801561152a575060001515600560019054906101000a900460ff161515145b61157f576040517f08c379a0000000000000000000000000000000000000000000000000000000008152600401808060200182810382526049815260200180611f986049913960600191505060405180910390fd5b6000809054906101000a900473ffffffffffffffffffffffffffffffffffffffff1673ffffffffffffffffffffffffffffffffffffffff163373ffffffffffffffffffffffffffffffffffffffff1614611624576040517f08c379a00000000000000000000000000000000000000000000000000000000081526004018080602001828103825260288152602001806120936028913960400191505060405180910390fd5b600160008273ffffffffffffffffffffffffffffffffffffffff1673ffffffffffffffffffffffffffffffffffffffff16815260200190815260200160002060010160009054906101000a900460ff16156116e7576040517f08c379a00000000000000000000000000000000000000000000000000000000081526004018080602001828103825260188152602001807f54686520766f74657220616c726561647920766f7465642e000000000000000081525060200191505060405180910390fd5b6000600160008373ffffffffffffffffffffffffffffffffffffffff1673ffffffffffffffffffffffffffffffffffffffff168152602001908152602001600020600001541461179f576040517f08c379a000000000000000000000000000000000000000000000000000000000815260040180806020018281038252601d8152602001807f416c72656164792068617665206120726967687420746f20766f74652e00000081525060200191505060405180910390fd5b60018060008373ffffffffffffffffffffffffffffffffffffffff1673ffffffffffffffffffffffffffffffffffffffff16815260200190815260200160002060000181905550600160076000828254019250508190555050565b60016020528060005260406000206000915090508060000154908060010160009054906101000a900460ff16908060010160019054906101000a900473ffffffffffffffffffffffffffffffffffffffff16908060010160159054906101000a900460b01b905084565b606080606060038054905060405190808252806020026020018201604052801561189d5781602001602082028038833980820191505090505b50905060008090505b6003805490508110156119505760026000600383815481106118c457fe5b9060005260206000209060039182820401919006600a029054906101000a900460b01b75ffffffffffffffffffffffffffffffffffffffffffff191675ffffffffffffffffffffffffffffffffffffffffffff191681526020019081526020016000206002015482828151811061193757fe5b60200260200101818152505080806001019150506118a6565b50600381818054806020026020016040519081016040528092919081815260200182805480156119db57602002820191906000526020600020906000905b82829054906101000a900460b01b75ffffffffffffffffffffffffffffffffffffffffffff1916815260200190600a019060208260090104928301926001038202915080841161198e5790505b5050505050915092509250509091565b600560019054906101000a900460ff1681565b6000806000905060008090505b600380549050811015611b5157816002600060038481548110611a2a57fe5b9060005260206000209060039182820401919006600a029054906101000a900460b01b75ffffffffffffffffffffffffffffffffffffffffffff191675ffffffffffffffffffffffffffffffffffffffffffff19168152602001908152602001600020600201541115611b44576002600060038381548110611aa857fe5b9060005260206000209060039182820401919006600a029054906101000a900460b01b75ffffffffffffffffffffffffffffffffffffffffffff191675ffffffffffffffffffffffffffffffffffffffffffff1916815260200190815260200160002060020154915060038181548110611b1e57fe5b9060005260206000209060039182820401919006600a029054906101000a900460b01b92505b8080600101915050611a0b565b505090565b60001515600560009054906101000a900460ff161515148015611b8c575060001515600560019054906101000a900460ff161515145b611be1576040517f08c379a0000000000000000000000000000000000000000000000000000000008152600401808060200182810382526049815260200180611f986049913960600191505060405180910390fd5b6000809054906101000a900473ffffffffffffffffffffffffffffffffffffffff1673ffffffffffffffffffffffffffffffffffffffff163373ffffffffffffffffffffffffffffffffffffffff1614611c86576040517f08c379a000000000000000000000000000000000000000000000000000000000815260040180806020018281038252602381526020018061202b6023913960400191505060405180910390fd5b60008090505b8251811015611f22576000828281518110611ca357fe5b602002602001015190506000600260008375ffffffffffffffffffffffffffffffffffffffffffff191675ffffffffffffffffffffffffffffffffffffffffffff19168152602001908152602001600020600001541415611e4957600381908060018154018082558091505090600182039060005260206000209060039182820401919006600a02909192909190916101000a81548169ffffffffffffffffffff021916908360b01c02179055505060066000815480929190600101919050555060405180608001604052806006548152602001858481518110611d8357fe5b60200260200101518152602001600081526020018275ffffffffffffffffffffffffffffffffffffffffffff1916815250600260008375ffffffffffffffffffffffffffffffffffffffffffff191675ffffffffffffffffffffffffffffffffffffffffffff1916815260200190815260200160002060008201518160000155602082015181600101556040820151816002015560608201518160030160006101000a81548169ffffffffffffffffffff021916908360b01c0217905550905050611f14565b80600260008375ffffffffffffffffffffffffffffffffffffffffffff191675ffffffffffffffffffffffffffffffffffffffffffff1916815260200190815260200160002060030160006101000a81548169ffffffffffffffffffff021916908360b01c0217905550838281518110611ebf57fe5b6020026020010151600260008375ffffffffffffffffffffffffffffffffffffffffffff191675ffffffffffffffffffffffffffffffffffffffffffff19168152602001908152602001600020600101819055505b508080600101915050611c8c565b505050565b600560009054906101000a900460ff1681565b60085481565b600060026000611f4e6119fe565b75ffffffffffffffffffffffffffffffffffffffffffff191675ffffffffffffffffffffffffffffffffffffffffffff191681526020019081526020016000206001015490509056fe54686973206f7065726174696f6e2063616e6e6f7420626520707265666f726d65642061732074686520656c656374696f6e2068617320616c726561647920636f6d6d656e6365642e54686973206f7065726174696f6e2063616e206f6e6c7920626520706572666f726d6564207768656e2074686520656c656374696f6e2070726f63657373206973206f6e676f696e672e4f6e6c79206368616972706572736f6e2063616e206164642063616e6469646174652e54686973206f7065726174696f6e2063616e6e6f7420626520707265666f726d65642061732074686520656c656374696f6e2068617320616c726561647920656e6465642e4f6e6c79206368616972706572736f6e2063616e206769766520726967687420746f20766f74652ea265627a7a723158200ece66611f6f60fb04cefd12f73a407571cdca29163c7713ac30edbd7257d63864736f6c63430005100032",
  "source": "pragma solidity >=0.4.22 <0.7.0;\n\n/// @title Voting with delegation.\ncontract Ballot {\n\n    event VoteEvent(\n        uint timestamp,\n        address indexed _from,\n        bytes10 indexed acronym,\n        bytes32 _name\n    );\n\n    // This declares a new complex type which will\n    // be used for variables later.\n    // It will represent a single voter.\n    struct Voter {\n        uint weight; // weight is accumulated by delegation   a\n        bool voted;  // if true, that person already voted\n        address delegate; // person delegated to\n        bytes10 vote;   // index of the voted proposal\n    }\n\n    // This is a type for a single proposal.\n    struct Candidate {\n        uint id;    //Makes it easier to identifu candidates\n        bytes32 name;   // short name (up to 32 bytes)\n        uint voteCount; // number of accumulated votes\n        bytes10 acronym;\n    }\n\n    address public chairperson;\n\n    // This declares a state variable that\n    // stores a `Voter` struct for each possible address.\n    mapping(address => Voter) public voters;\n\n    // A mapping of candidates using party Acronym as key\n    mapping(bytes10 => Candidate) public candidates;\n\n    // An array of acronyms to make iterating easy\n    bytes10[] acronyms;\n\n    // A dynamically-sized array of `Candidate` structs.\n    //Candidate[] public candidates;\n    bytes32 public tester;\n    \n    bool public electionStarted = false ;\n    bool public electionEnded = false;\n    \n    modifier electionNotStarted(){\n        require(\n            electionStarted == false && electionEnded == false,\n            \"This operation cannot be preformed as the election has already commenced.\"\n        );\n        _;\n    }\n    \n    modifier electionNotEnded(){\n        require(\n            electionEnded == false,\n            \"This operation cannot be preformed as the election has already ended.\"\n        );\n        _;\n    }\n    \n    modifier electionOngoing(){\n        require(\n            electionStarted == true,\n            \"This operation can only be performed when the election process is ongoing.\"\n        );\n        _;\n    }\n\n    /// Create a new ballot to choose one of `candidateNames`.\n    constructor() public {\n        chairperson = msg.sender;\n        voters[chairperson].weight = 1;\n\n    }\n\n    uint public candidatesCount;\n\n    //chairperson already has a right to vote\n    uint public numVoters = 1;\n    uint public numVoted;\n\n    function addCandidate (bytes32 _name, bytes10 acronym) public electionNotStarted {\n        require(\n            msg.sender == chairperson,\n            \"Only chairperson can add candidate.\"\n        );\n\n        if(candidates[acronym].id == 0){\n            acronyms.push(acronym);\n            candidatesCount ++;\n\n        }\n        candidates[acronym] = Candidate(candidatesCount, _name, 0, acronym);\n        //candidates.push(Candidate(candidatesCount, _name, 0));\n    }\n\n    function addCandidates (bytes32[] memory _names, bytes10[] memory acronymsReceived) public electionNotStarted {\n        require(\n            msg.sender == chairperson,\n            \"Only chairperson can add candidate.\"\n        );\n\n        for(uint i = 0; i < _names.length; i++){\n            bytes10 acronym = acronymsReceived[i];\n\n            if(candidates[acronym].id == 0){\n                acronyms.push(acronym);\n                candidatesCount ++;\n                candidates[acronym] = Candidate(candidatesCount, _names[i], 0, acronym);\n            }\n            else{\n                candidates[acronym].acronym = acronym;\n                candidates[acronym].name = _names[i]; \n            }\n            \n        }\n\n        //candidates.push(Candidate(candidatesCount, _name, 0));\n    }\n\n    // Give `voter` the right to vote on this ballost.\n    // May only be called by `chairperson`.\n    function giveRightToVote(address voter) public electionNotStarted {\n        // If the first argument of `require` evaluates\n        // to `false`, execution terminates and all\n        // changes to the state and to Ether balances\n        // are reverted.\n        // It is often a good idea to use `require` to check if\n        // functions are called correctly.\n        // As a second argument, you can also provide an\n        // explanation about what went wrong.\n        require(\n            msg.sender == chairperson,\n            \"Only chairperson can give right to vote.\"\n        );\n        require(\n            !voters[voter].voted,\n            \"The voter already voted.\"\n        );\n        require(voters[voter].weight == 0, \"Already have a right to vote.\");\n        \n        voters[voter].weight = 1;\n        numVoters += 1;\n    }\n\n    /// Delegate your vote to the voter `to`.\n    function delegate(address to) public electionNotStarted {\n        address tempTo = to;\n        // assigns reference\n        Voter storage sender = voters[msg.sender];\n        require(!sender.voted, \"you already voted.\");\n        require(tempTo != msg.sender, \"you don't vote for yourself\");\n\n        // forward the delegation as long as `tempTo` also delegated.\n        // in general, such loops are very dangerous...\n        while (voters[tempTo].delegate != address(0)) {\n            tempTo = voters[tempTo].delegate;\n            require(tempTo != msg.sender, \"found loop in delegation\");\n        }\n        sender.voted = true;\n        sender.delegate = tempTo;\n        Voter storage final_delegate = voters[tempTo];\n        if (final_delegate.voted) {\n            // to voteCount\n            candidates[final_delegate.vote].voteCount += sender.weight;\n        } else {\n            // , \n            final_delegate.weight += sender.weight;\n        }\n    }\n\n    /// Give your vote (including votes delegated to you)\n    /// to candidate `candidates[candidate].name`.\n    function vote(bytes10 candidate, address voter) public electionNotEnded electionOngoing {\n        Voter storage sender = voters[voter];\n        require(sender.weight > 0, \"Has no right to vote\");\n        require(!sender.voted, \"Already voted.\");\n        sender.voted = true;\n        sender.vote = candidate;\n\n        // If `candidate` is out of the range of the array,\n        // this will throw automatically and revert all\n        // changes.\n        candidates[candidate].voteCount += sender.weight;\n\n        numVoted += sender.weight;\n\n        // There is a warning with using timestamp but since it's only meant for information only,\n        // it can be ignored\n        emit VoteEvent(block.timestamp, voter, candidate, candidates[candidate].name);\n    }\n\n    /// @dev Computes the winning candidate taking all\n    /// previous votes into account.\n    function winningCandidate() public view\n            returns (bytes10 winningCandidate_)\n    {\n        uint winningVoteCount = 0;\n        for (uint p = 0; p < acronyms.length; p++) {\n            if (candidates[acronyms[p]].voteCount > winningVoteCount) {\n                winningVoteCount = candidates[acronyms[p]].voteCount;\n                winningCandidate_ = acronyms[p];\n            }\n        }\n    }\n    \n    function startElection() public electionNotStarted electionNotEnded {\n        electionStarted = true;\n    }\n    \n    function endElection() public electionOngoing electionNotEnded {\n        electionEnded = true;\n    }\n\n    // Calls winningCandidate() function to get the index\n    // of the winner contained in the candidates array and then\n    // returns the name of the winner\n    function winnerName() public view\n            returns (bytes32 winnerName_)\n    {\n        winnerName_ = candidates[winningCandidate()].name;\n    }\n    \n    function getStats() public view \n            returns (bytes10[] memory, uint[] memory)\n    {\n        uint[] memory numVotes = new uint[](acronyms.length);\n        for (uint p = 0; p < acronyms.length; p++) {\n            numVotes[p] = candidates[acronyms[p]].voteCount;\n        }\n        \n        return (acronyms, numVotes);\n    }\n}\n",
  "sourcePath": "C:/Mine/Sources/eth/drizzle/contracts/Ballot.sol",
  "compiler": {
    "name": "solc",
    "version": "0.5.16+commit.9c3226ce.Emscripten.clang"
  },
  "schemaVersion": "3.2.3",
  "updatedAt": "2020-08-25T13:13:53.379Z",
  "networkType": "ethereum",
  "devdoc": {
    "methods": {
      "winningCandidate()": {
        "details": "Computes the winning candidate taking all previous votes into account."
      }
    },
    "title": "Voting with delegation."
  },
  "userdoc": {
    "methods": {
      "constructor": "Create a new ballot to choose one of `candidateNames`.",
      "delegate(address)": {
        "notice": "Delegate your vote to the voter `to`."
      },
      "vote(bytes10,address)": {
        "notice": "Give your vote (including votes delegated to you) to candidate `candidates[candidate].name`."
      }
    }
  }
}